{
  "transactions": [
    {
      "hash": "0x018071645c05c41508ac9ce33671a7429bce385c2dc2e38d966180e695ca5cf2",
      "transactionType": "CALL",
      "contractName": null,
      "contractAddress": "0xf686528078f55eadf2d0e0dd57560e055d1907ef",
      "function": "startChat(string,string[])",
      "arguments": [
        "\"what animal is in these images\"",
        "[\"https://evm-poc-images.s3.eu-central-1.amazonaws.com/royal-tang/1.png\", \"https://evm-poc-images.s3.eu-central-1.amazonaws.com/royal-tang/2.png\", \"https://evm-poc-images.s3.eu-central-1.amazonaws.com/royal-tang/3.png\"]"
      ],
      "transaction": {
        "from": "0x98b6388f0acfa325f1d93438a647e1e4cfb156f2",
        "to": "0xf686528078f55eadf2d0e0dd57560e055d1907ef",
        "gas": "0x10aca4",
        "value": "0x0",
        "input": "0xca3ce8d100000000000000000000000000000000000000000000000000000000000000400000000000000000000000000000000000000000000000000000000000000080000000000000000000000000000000000000000000000000000000000000001e7768617420616e696d616c20697320696e20746865736520696d6167657300000000000000000000000000000000000000000000000000000000000000000003000000000000000000000000000000000000000000000000000000000000006000000000000000000000000000000000000000000000000000000000000000e00000000000000000000000000000000000000000000000000000000000000160000000000000000000000000000000000000000000000000000000000000004568747470733a2f2f65766d2d706f632d696d616765732e73332e65752d63656e7472616c2d312e616d617a6f6e6177732e636f6d2f726f79616c2d74616e672f312e706e67000000000000000000000000000000000000000000000000000000000000000000000000000000000000000000000000000000000000000000004568747470733a2f2f65766d2d706f632d696d616765732e73332e65752d63656e7472616c2d312e616d617a6f6e6177732e636f6d2f726f79616c2d74616e672f322e706e67000000000000000000000000000000000000000000000000000000000000000000000000000000000000000000000000000000000000000000004568747470733a2f2f65766d2d706f632d696d616765732e73332e65752d63656e7472616c2d312e616d617a6f6e6177732e636f6d2f726f79616c2d74616e672f332e706e67000000000000000000000000000000000000000000000000000000",
        "nonce": "0x6",
        "chainId": "0xaa289"
      },
      "additionalContracts": [],
      "isFixedGasLimit": false
    }
  ],
  "receipts": [
    {
      "status": "0x1",
      "cumulativeGasUsed": "0x0",
      "logs": [
        {
          "address": "0x68ec9556830ad097d661df2557fbcec166a0a075",
          "topics": [
            "0x3aaf9dab48b64f38cc49421a3c70996f1c5301326d0def0b47d1d7cfff333458",
            "0x0000000000000000000000000000000000000000000000000000000000001e39",
            "0x0000000000000000000000000000000000000000000000000000000000000000"
          ],
          "data": "0x000000000000000000000000f686528078f55eadf2d0e0dd57560e055d1907ef",
          "blockHash": "0x794049c8ba1af44388ebcd6c4774b330e5c0f50dfddf89db379212d7f7c585a0",
          "blockNumber": "0x16a10ba",
          "transactionHash": "0x018071645c05c41508ac9ce33671a7429bce385c2dc2e38d966180e695ca5cf2",
          "transactionIndex": "0x0",
          "logIndex": "0x0",
          "removed": false
        },
        {
          "address": "0xf686528078f55eadf2d0e0dd57560e055d1907ef",
          "topics": [
            "0xd1de2c4de50323207202f3df0bb1dec1a42e233aec245f25519d674c10bd72ca",
            "0x00000000000000000000000098b6388f0acfa325f1d93438a647e1e4cfb156f2",
            "0x0000000000000000000000000000000000000000000000000000000000000000"
          ],
          "data": "0x",
          "blockHash": "0x794049c8ba1af44388ebcd6c4774b330e5c0f50dfddf89db379212d7f7c585a0",
          "blockNumber": "0x16a10ba",
          "transactionHash": "0x018071645c05c41508ac9ce33671a7429bce385c2dc2e38d966180e695ca5cf2",
          "transactionIndex": "0x0",
          "logIndex": "0x1",
          "removed": false
        }
      ],
      "logsBloom": "0x00000000000000000000000000000000000081040000000000010000002000000000100000000000000000000000080000000000000004000000000000004000000000000000000000000000000000000000000000000000000000000000100000000000020000000000000000000800000000040000000000000000000000000000000000000000000000000000000000200000000000000000000000000000000000000000000000000000000000000000000000000000000000000000000000000000000000000000000000000000000000000000000000004000060020000000000000000000001000100000000001000000000000000000000000000000",
      "type": "0x0",
      "transactionHash": "0x018071645c05c41508ac9ce33671a7429bce385c2dc2e38d966180e695ca5cf2",
      "transactionIndex": "0x0",
      "blockHash": "0x794049c8ba1af44388ebcd6c4774b330e5c0f50dfddf89db379212d7f7c585a0",
      "blockNumber": "0x16a10ba",
      "gasUsed": "0xc126c",
      "effectiveGasPrice": "0x3b9aca00",
      "from": "0x98b6388f0acfa325f1d93438a647e1e4cfb156f2",
      "to": "0xf686528078f55eadf2d0e0dd57560e055d1907ef",
      "contractAddress": "0xf686528078f55eadf2d0e0dd57560e055d1907ef"
    }
  ],
  "libraries": [],
  "pending": [],
  "returns": {},
  "timestamp": 1720950072,
  "chain": 696969,
  "commit": "72ffd13"
}