{
  "transactions": [
    {
      "hash": "0x583cd294fd1074e38b95499de7af64b502202c3eed51c28cfed53bd15cdc26f7",
      "transactionType": "CALL",
      "contractName": null,
      "contractAddress": "0x8f2888d10276f2a4fe8f4b3d3f88b96b7a58f631",
      "function": "startChat(string,string[])",
      "arguments": [
        "\"what animal is in these images\"",
        "[\"https://evm-poc-images.s3.eu-central-1.amazonaws.com/royal-tang/1.png\", \"https://evm-poc-images.s3.eu-central-1.amazonaws.com/royal-tang/2.png\", \"https://evm-poc-images.s3.eu-central-1.amazonaws.com/royal-tang/3.png\"]"
      ],
      "transaction": {
        "from": "0x98b6388f0acfa325f1d93438a647e1e4cfb156f2",
        "to": "0x8f2888d10276f2a4fe8f4b3d3f88b96b7a58f631",
        "gas": "0x10aca4",
        "value": "0x0",
        "input": "0xca3ce8d100000000000000000000000000000000000000000000000000000000000000400000000000000000000000000000000000000000000000000000000000000080000000000000000000000000000000000000000000000000000000000000001e7768617420616e696d616c20697320696e20746865736520696d6167657300000000000000000000000000000000000000000000000000000000000000000003000000000000000000000000000000000000000000000000000000000000006000000000000000000000000000000000000000000000000000000000000000e00000000000000000000000000000000000000000000000000000000000000160000000000000000000000000000000000000000000000000000000000000004568747470733a2f2f65766d2d706f632d696d616765732e73332e65752d63656e7472616c2d312e616d617a6f6e6177732e636f6d2f726f79616c2d74616e672f312e706e67000000000000000000000000000000000000000000000000000000000000000000000000000000000000000000000000000000000000000000004568747470733a2f2f65766d2d706f632d696d616765732e73332e65752d63656e7472616c2d312e616d617a6f6e6177732e636f6d2f726f79616c2d74616e672f322e706e67000000000000000000000000000000000000000000000000000000000000000000000000000000000000000000000000000000000000000000004568747470733a2f2f65766d2d706f632d696d616765732e73332e65752d63656e7472616c2d312e616d617a6f6e6177732e636f6d2f726f79616c2d74616e672f332e706e67000000000000000000000000000000000000000000000000000000",
        "nonce": "0x3",
        "chainId": "0xaa289"
      },
      "additionalContracts": [],
      "isFixedGasLimit": false
    }
  ],
  "receipts": [
    {
      "status": "0x1",
      "cumulativeGasUsed": "0x0",
      "logs": [
        {
          "address": "0x68ec9556830ad097d661df2557fbcec166a0a075",
          "topics": [
            "0x3aaf9dab48b64f38cc49421a3c70996f1c5301326d0def0b47d1d7cfff333458",
            "0x0000000000000000000000000000000000000000000000000000000000001aed",
            "0x0000000000000000000000000000000000000000000000000000000000000000"
          ],
          "data": "0x0000000000000000000000008f2888d10276f2a4fe8f4b3d3f88b96b7a58f631",
          "blockHash": "0xdc475b06a2961b827d20f61e6098e5cccfc86f79e4cd93bbe369c38fd9743a9d",
          "blockNumber": "0x16813e7",
          "transactionHash": "0x583cd294fd1074e38b95499de7af64b502202c3eed51c28cfed53bd15cdc26f7",
          "transactionIndex": "0x2",
          "logIndex": "0x0",
          "removed": false
        },
        {
          "address": "0x8f2888d10276f2a4fe8f4b3d3f88b96b7a58f631",
          "topics": [
            "0xd1de2c4de50323207202f3df0bb1dec1a42e233aec245f25519d674c10bd72ca",
            "0x00000000000000000000000098b6388f0acfa325f1d93438a647e1e4cfb156f2",
            "0x0000000000000000000000000000000000000000000000000000000000000000"
          ],
          "data": "0x",
          "blockHash": "0xdc475b06a2961b827d20f61e6098e5cccfc86f79e4cd93bbe369c38fd9743a9d",
          "blockNumber": "0x16813e7",
          "transactionHash": "0x583cd294fd1074e38b95499de7af64b502202c3eed51c28cfed53bd15cdc26f7",
          "transactionIndex": "0x2",
          "logIndex": "0x1",
          "removed": false
        }
      ],
      "logsBloom": "0x00000000000000000000000000000000000180000000000000010000002000000000100000000000400000000000000000000000000004000000000000004000000000000000000000000000000000000000010000000000000000000000100000000000020000000000000000000800010000040000000000000000000000000000000000000000000000000000000000200000000010000000000000000000000000000000000000000000000000000000000000000000000000000000000000000000000000000000000000000000000000000000000000004000040020000000000000000000000000000000000001000000000000000000000800000000",
      "type": "0x0",
      "transactionHash": "0x583cd294fd1074e38b95499de7af64b502202c3eed51c28cfed53bd15cdc26f7",
      "transactionIndex": "0x0",
      "blockHash": "0xdc475b06a2961b827d20f61e6098e5cccfc86f79e4cd93bbe369c38fd9743a9d",
      "blockNumber": "0x16813e7",
      "gasUsed": "0xc126c",
      "effectiveGasPrice": "0x3b9aca00",
      "from": "0x98b6388f0acfa325f1d93438a647e1e4cfb156f2",
      "to": "0x8f2888d10276f2a4fe8f4b3d3f88b96b7a58f631",
      "contractAddress": "0x8f2888d10276f2a4fe8f4b3d3f88b96b7a58f631"
    }
  ],
  "libraries": [],
  "pending": [],
  "returns": {},
  "timestamp": 1720896070,
  "chain": 696969,
  "commit": "2ffc1c7"
}